:100000000C9431030C94AD350C944E030C944E03B8
:100010000C944E030C944E030C944E030C944E031C
:100020000C944E030C944E030C94DE1E0C94201E74
:100030000C94C2200C944E030C944E030C944E036B
:100040000C944E030C944E030C944E030C944E03EC
:100050000C944E030C9459200C944E030C944E03B4
:100060000C944E030C944E030C944E030C944E03CC
:100070000C944E030C944E030C944E030C944E03BC
:100080000C944E030C944E030C944E030C944E03AC
:100090000C944E030C944E030C944E030C944E039C
:1000A0000C944E030C944E030C944E036308D70833
:1000B0006B08350839086F083C0872087D08470846
:1000C000CD084B0881084F088508AF0853088908F8
:1000D000B90859088F089908400876084308790834
:1000E0005E089408A508C508C70831086708E00835
:1000F00006090C09FA080009120918091E09190A4B
:10010000190A490A490A030CDB0A030C030CE00A2A
:10011000530B660B660B49125F126612741474144B
:100120009E12AF12C212021307132F135213881319
:100130008B139713A213BA13F21304142A144C143A
:100140002C1C531C081E531C081E9F1CC21C081E7E
:10015000C31DD31DFD377A585A000004E6D6B446B5
:100160000200210116000000742FE5A3E003B9018D
:10017000285D003D8889C65436C3174FE4DD5C74A2
:1001800031C9895FE4168E6E782AD59E7E2A67CEA5
:10019000FF03AA1C85C0F6200C5E113412A714B50B
:1001A000EE8302C9438C060154C0874553586058FA
:1001B000B2F85EA1950171E77276BC3DAAD692B005
:1001C0003E16BA0EF3A347A20FE8C40343AFCFAB6A
:1001D0001349FA22FE41A72B9FC272FA231B15A3D3
:1001E0001588C32BFCA9FF32BDFD3F94C89976FE4C
:1001F000AB188E7B4BF4D305C81C17966057850A45
:100200003E333928BFB4AB757CB13BD7A82B95AF33
:100210007C76842133ED7AE48B0C9F9E3D4E32B286
:100220003993047BF1F646A51FDCD2498F64FEE5C5
:1002300059E288AF880391422D277A4197F5B7128A
:10024000B250541795DDB1AFBD4AE12173C07ABDFC
:10025000DC21EAB1DED180516CEBC710C28491EB96
:100260004A5540D65F8DAD0E5AABE63AC1A98CCB4C
:1002700090C21ECEB777FF7BF1DDDEF5940EC38012
:10028000F7D77FD2A7471C01E88A048D62E6AE81CA
:1002900067330BAA2597CBB841790200659168496D
:1002A000C6FD9BFA0001C402BA07000064636C44F7
:1002B000B1C467FB020000000004595A050109029D
:1002C000A10185020901A1000509190129081500EC
:1002D0002501950875018102050109300931158153
:1002E000257F95027508810609381581257F9501BE
:1002F00075088106050C0A38021581257F95017560
:10030000088106C0C005010906A101850605071977
:10031000E029E715002501950875018102050719F7
:100320000029EF1500250195F075018102050819D6
:10033000012905950575019102950175039101C08B
:100340000660FF0961A1010962150026FF009520E2
:10035000750881020963150026FF00952075089134
:1003600002C005010906A101050719E029E71500EA
:100370002501950875018102950175088101050720
:10038000190029FF150026FF009506750881000554
:10039000081901290515002501950575019102959A
:1003A0000175039101C009025B00030100A0FA0975
:1003B0000400000103010100092111010001224490
:1003C0000007058103080001090401000203000081
:1003D00000092111010001222200070582032000EB
:1003E00001070503032000010904020001030000C6
:1003F0000009211101000122840007058403200067
:100400000112010002000000084D443635030001CE
:100410000203011C037600690061006C003A00666B
:1004200000360034006300320062003300630000D5
:10043000001E03440061006300740079006C00201A
:10044000004D0069006E00690064006F00780000D4
:10045000000E0364006C0066006F00720064000010
:10046000000403090414001A000800150017000412
:10047000001600070009000A001D001B00060019F5
:1004800000050000000000E3002A002C001C0018FA
:10049000000C00120013000B000D000E000F0033C3
:1004A00000110010003600370038002C002800E64C
:1004B00000000000000100010026039F30F9300019
:1004C000000200020022039F30F930000003000107
:1004D0000027039F30F9300000040002000C039F46
:1004E00030F93016300500010028039F30F9300044
:1004F00000060002000E039F30F9300000070002E2
:100500000024039F30F93000000800010029039FF8
:1005100030F93000000900020010039F30F930F17B
:100520002F0A00020012039F30F930F12F0B000256
:100530000014039F30F930F12F0C00020016039FC6
:1005400030F930F12F0D00020018039F30F930F11F
:100550002F0E0002001A039F30F930F12F0F000216
:10056000001C039F30F930F12F100002001E039F82
:1005700030F930F12F1100020020039F30F930F1E3
:100580002F120002002A039F30F9300000130002EE
:10059000002C039F30F9300000140001002E039F4F
:1005A00030F9300000150000000000742F1F3000EB
:1005B000000000000000000000000000000000003B
:1005C000000000000000000000000000000000002B
:1005D00000000000007E0F00D4FFFFFFC7000000F6
:1005E0007800000000000000002A2B280000000016
:1005F00000000000000000000000000029000000D2
:10060000002C1E3420212224342627252E362D3777
:1006100038271E1F202122232425263333362E3748
:10062000381F0405060708090A0B0C0D0E0F1011E0
:1006300012131415161718191A1B1C1D2F313023ED
:100640002D350405060708090A0B0C0D0E0F1011B5
:1006500012131415161718191A1B1C1D2F313035BB
:100660004C0011241FBECFEFDAE0DEBFCDBF11E09A
:10067000A0E0B1E0E8E9FFE602C005900D92A435E4
:10068000B107D9F725E0A4E5B1E001C01D92AF356F
:10069000B207E1F70E945B0C0C94CA370C9400007F
:1006A000ACE0B0E0E6E5F3E00C94CE36DC01149665
:1006B0002C91222311F40C94570C7C0161E00E94D0
:1006C000AF2C8C01F7018581882319F180914003BB
:1006D000909141030097E9F008171907D1F0992785
:1006E000F4E0880F991FFA95E1F7FC01E753FC4FFE
:1006F0002081246020838C539C4FDC010D931C933C
:100700000E94BD2110923F0361E0C7010E94AF2CFF
:100710008C01F7013580332009F4C0C0C801975718
:100720008038910508F006C1D02EFFE0F01708F4DC
:1007300011C68FEF93E00E941E3781110BC604E9AA
:1007400013E0DD2071F0011524E0120709F402C660
:10075000C8010E941E37811101C0DA940F5F1F4F3C
:10076000F0CFE4E05E2EAE014F5F5F4F3A014424CC
:100770004A94D301E52D1D92EA95E9F76801FFEF50
:10078000CF1ADF0AC8010E941E378983882309F423
:10079000E1C5813009F07EC0580122E0A20EB11CF3
:1007A000C6010E941E37382E8A83882309F4D2C5D9
:1007B0008FEF830D833060F4680133E0C30ED11CEA
:1007C000C5010E941E378B83811164C08601D1CF81
:1007D0008BEF830D833078F5480143E0840E911C44
:1007E000C5010E941E378B83811102C06401EECFC8
:1007F000680154E0C50ED11CC4010E941E378C83D1
:10080000882321F32B813C8121308FEF380718F0AA
:10081000922F80E001C0C901A6E03A1631F0B7E09E
:100820003B1631F00E94A132D1CF0E947C32CECF54
:100830000E940232CBCFE4E03E1611F06501C6CF34
:10084000C5010E941E37B82E6801F4E0CF0ED11CFE
:10085000C80103960E941E37BB2009F47BC588237C
:1008600009F478C5282F30E021503109429EA001BB
:10087000439E500D11248B2D90E00197840F951FFE
:10088000019708F4A3CFAFE9BFE01197F1F700C0DB
:100890000000F6CFC3010E94633398CF6801E7E5FB
:1008A000DE1AFFEFCF16D10411F008F05DC06AEB3D
:1008B00073E08C2D0E94F923892BB9F5C60174E0F1
:1008C000880F991F7A95E1F7FC01EC53FC4F2281C8
:1008D0002130C9F42091BA033091BB03232B29F1B5
:1008E0002091BC033091BD03232BF9F02091BE036E
:1008F0003091BF03232BC9F42091C0033091C10371
:10090000232B49F012C0223081F42091BE03309194
:10091000BF03232B51F0FC01E753FC4F20812E7FB6
:1009200020838C539C4F0E94BD21D70115963C908B
:100930003320D9F00E35BCE71B0761F00F35ECE72B
:100940001E0761F00D35FCE71F0779F48091000167
:10095000811104C081E080930001FCC41092000169
:1009600080E00E945C23F6C4312C8091000181114B
:1009700008C0C80197558F3F910509F008F475C16B
:10098000E2C1480120EE821A91082090BB018091BB
:10099000AB03282A80912102282A38E0831691048B
:1009A00080F498012770332781E090E001C0880F20
:1009B0002A95EAF7332011F0282A18C080952822BA
:1009C00015C0332009F411C110935701009356014B
:1009D0000E94AA2060930003709301038093020396
:1009E000909303031092080310920703D7018D918F
:1009F0009C910E94672821E030E0F90102C0EE0FCF
:100A0000FF1F8A95E2F7FC87EB872091090330915D
:100A10000A0338872F8340915601509157015A8716
:100A200049871D82432C512C5D81E52FF0E0EE0FAC
:100A3000FF1FEB52FB4FC080D180C114D10409F4D9
:100A4000EBC0211005C0D60112968C918111C9C04E
:100A5000F601838190E02B853C8582239323892BAB
:100A600009F4BFC08085982F977009F487E038E0BB
:100A70008316910440F4332019F081FD09C0B1C000
:100A800082FD06C0AEC0332009F4ABC080FFA9C010
:100A9000D601AD90BC900A151B0519F4332009F45A
:100AA000A0C0EF81F885CE16DF0609F49AC0D60102
:100AB0001D96ED91FC911E97309721F0808188233F
:100AC00009F48FC0622DC6010E94C923882309F44E
:100AD00088C00A151B0511F4320102C0612C712C6B
:100AE000B62DB170BE8381E0A114B10441F0B11103
:100AF00006C0E985FA85AE16BF0609F080E080FFE2
:100B000070C080E00E945C23D0920A03C092090367
:100B100081E080930603D60115968C91809304039F
:100B2000BE81B11110C0AB2871F0F60180819181B6
:100B30009C0124503109213A310518F40E94EB2020
:100B400002C00E94EE2BD6011696AD90BC9017976E
:100B5000C5019A9581159F4110F4E0EEBE225524FF
:100B60005394C50101978F339E4708F0512CD6014D
:100B70001996ED91FC911A97309739F01B966D916B
:100B80007C911C9781E009955822552019F1F601B6
:100B9000868197810E94132F80930503C501F8E099
:100BA0008F16910418F40E94162314C00497813AFA
:100BB000910520F48A2D0E9419210EC00E94F5197A
:100BC0008FE39CE90197F1F700C000008A2D0E9495
:100BD0000F2C02C00E94F51991E0692660FE66C1E3
:100BE000C8CEAD81AF5FAD831FCF8091560190918C
:100BF00057010817190781F41092570110925601F6
:100C0000109200031092010310920203109203034A
:100C100010920803109207038091090390910A0330
:100C2000009709F4A6CEB8E08B16910438F4622D33
:100C30000E94C92381119DCE81E014C0FC01208156
:100C400031810217130729F4311006C010920603F0
:100C500008C0332009F48DCEDC0118968C9185FDF7
:100C600088CE80E00E945C2384CE5801BB24C5015D
:100C700054E0880F991F5A95E1F7FC01EC53FC4FA3
:100C80006F01D70115962C911597FC01E753FC4F86
:100C90005F01808120FB80F9808315968C918823E9
:100CA000A1F10E94B6209093750180937401D60142
:100CB00012968C9112978F5F12968C931297909147
:100CC0003F0380912102892B13968C931397809177
:100CD000BB0114968C93149716964D915C911797BF
:100CE0001E966D917C911F97C6010E949E21F50171
:100CF000808181FF03C090E080E002C0902F812FAF
:100D000090934003809341031EC0D6011C964D91E1
:100D10005C911D971E966D917C911F97C6010E9454
:100D20009E21F501808181FF0EC0C6010E94A42191
:100D300080914003909141030817190721F4109204
:100D40004103109240038091270380FF82C00E94DC
:100D5000B6206C01D70115968C918823B1F1809152
:100D6000270182FF08C026E731E040E0B60180E0BD
:100D700090E00E94CE250431BCE71B07A9F00531A5
:100D8000ECE71E0751F00331FCE71F07A1F4809147
:100D900027018160809327010EC080912701982F41
:100DA000909590FB80F903C0809127018E7F8093FE
:100DB00027010E949425C801905281159043D0F4D8
:100DC000109245021092440244C0013E110521F4E4
:100DD000809127018F7E06C0053E110531F4809178
:100DE00027018F7D8093270105C0C801905281158E
:100DF000904378F18091270180FF2BC0D701159691
:100E00008C910832110538F40E311105B8F4043014
:100E1000110578F41CC00933110538F40D321105A1
:100E200090F40B32110579F012C00436110559F017
:100E30000EC09091270394FD0AC03BC090912703F8
:100E400093FD05C036C09091270392FF32C08111F7
:100E5000E0C0F801E851FC47E730F10508F4C6C1ED
:100E6000F70195819111E0C00631FCE71F0709F0F9
:100E700015C280912102282F2A7A3091260330FD55
:100E8000E8C131FDECC132FDF0C133FDF4C199235D
:100E900009F4FAC181E0211101C080E0809358017A
:100EA000222309F4EFC185E30E9419210E94F5195C
:100EB00051C2882309F4A6C09091BB018091210200
:100EC000892B8D7F79F11092450210924402809116
:100ED000270381FD27C0F80143E0F695E7954A9581
:100EE000E1F7EE71FF27EE5DFD4F98012F7033277C
:100EF00081E090E002C0880F991F2A95E2F7809563
:100F00009095208131818223932391838083A7014F
:100F100060E0C8010E94B3258091BB018D7F0E94D3
:100F2000B8196CC089E0F701A6E7B1E001900D9215
:100F30008A95E1F71092790110927801809144022C
:100F40009091450208171907E1F58091270385FF65
:100F500038C09091270191FF02C086FF32C0809176
:100F60004202909143025601A81AB90AB701C8017A
:100F70000E94CC31A816B90620F58091210281FF8C
:100F800008C08091270180618093270182E00E9440
:100F9000E8198091210285FF08C0809127018062B5
:100FA0008093270180E20E94E819609127016695ED
:100FB0006170A70180914402909145020E94B3257F
:100FC000C9C18091BB0190912102982B9695917097
:100FD0002091270190FB21F9209327018D7F0E940A
:100FE000B8191093450200934402D0924302C09274
:100FF00042028091270184608093270182E00E9451
:101000004E1AA8C1970140E0B601C8010E94CE2542
:10101000A1C11092450210924402F801E851FC4728
:10102000E730F10508F4E2C010923E03C801905782
:10103000839708F00CC184E090E00E9426379093DB
:10104000470380934603F801E150F047E232F1058F
:1010500020F4EA5AFF4F0C94A03780914603816038
:10106000ACC0809147038860B4C080914603826021
:10107000A4C08091460320C08091460388609DC033
:10108000809147031EC0809147038260A2C0809177
:101090004603806192C08091460380628EC0809139
:1010A000460380648AC00E94392B80914603806881
:1010B00084C080914603886084607FC0809147032C
:1010C0008260816086C0809146038E7F76C0809169
:1010D0004703877F7EC0809146038D7F6EC08091DD
:1010E000460320C080914603877F67C080914703F5
:1010F0001EC0809147038D7F6CC0809146038F7E18
:101100005CC0809146038F7D58C0809146038F7BE1
:1011100054C00E94392B809146038F774EC0809136
:101120004603877F8B7F49C0809147038D7F8E7FE9
:1011300050C08091460382FB222720F991E092273C
:1011400090FB82F990FB83F938C080914703982F78
:10115000909591708E7F892B90FB81F93AC0809198
:10116000460386FB222720F991E0922790FB86F91F
:1011700024C00E94392B8091460387FB222720F947
:1011800091E0922790FB87F918C061E001C060E010
:101190008EE090E00E943C371EC08091460384FBA5
:1011A000222720F991E0922790FB84F906C08091D4
:1011B0004603982F909590FB80F9809346030BC0CF
:1011C0008091470383FB222720F991E0922790FB2F
:1011D00083F980934703609146037091470384E04D
:1011E00090E00E945A370E94392BB4C0E858FF4F54
:1011F0000C94A03706E221EE41EE6AE17CE723C0C1
:1012000007E225EE45EE6BE17CE71DC006E221EE2C
:1012100040EE68E17CE717C007E225EE44EE69E1A5
:101220007CE711C006E221EE42EE6CE17CE70BC0E8
:1012300007E225EE46EE6DE17CE705C008E221E01D
:1012400045EE6EE17CE7C7010E94E42183C091E096
:101250000BCE482F447409F414CE20E012CE482F50
:10126000417109F410CE20E00ECE482F487809F4E1
:101270000CCE20E00ACE827209F409CE992321F027
:101280001092580189E210CE80915801882311F004
:1012900085E301C089E20E94EB2008CE07372CE7E6
:1012A000120711F481E005C008373CE7130771F419
:1012B00082E0992319F00E94022902C00E94F528B9
:1012C00043E062E081E00E94D32844C0D701159634
:1012D0008C91882309F450C00330BCE71B0729F127
:1012E00048F40115FCE71F0791F001302CE71207C5
:1012F00011F142C00B353CE7130741F10C354CE7C7
:101300001407E1F00A351C47B9F581E020C00E94BE
:10131000392B8FEF94E3ACE081509040A040E1F78F
:1013200000C000000E94482015C06FEF7FEF80E0F2
:1013300090E00E945A370E94FD2E0CC08091470316
:1013400082FB882780F991E0892701C080E00E9414
:10135000651A12C080919001877009F4A8C2F70144
:101360008581882309F4A3C28091470382FF9FC22D
:1013700082E00E944E1A9BC2D70117968D919C91D4
:1013800018970097C9F4D70115968C9115970D9170
:101390001C91882349F0C8010E942B28D82E682F61
:1013A000C8010E949B2804C0C8010E946728D82E4B
:1013B000B8018D2D0E9438180E945518182F092F3A
:1013C000F701B580C680C2943FE0C32280919001AE
:1013D0008770F9F0BB20E9F0892F807F803461F0BD
:1013E00080E2810F8830A8F0892F807E803221F43E
:1013F000123078F0CC2069F08091470382FF09C059
:1014000082E00E944E1A809190018770AA24A394D2
:101410008111A12C902E92942FE09222892D90E0A0
:101420008C30910508F0EFC1FC01E158FF4F0C949E
:10143000A037902F9F70802F807FD92E19F0D294E3
:1014400090EFD922BB20A9F0DD2009F4BCC180E2D5
:10145000810F883010F0111104C08D2D0E94EF19FA
:1014600005C080913F03D82AD0923F030E94F5190E
:10147000AAC1812F0E94EE2BDD2009F4C4C180E2B5
:10148000810F883068F1112359F18D2D0E94E119E7
:101490002AC0902F9F70802F807FD92E803219F024
:1014A000D29480EFD822112321F0113009F469C0C1
:1014B00074C08091470382FD19C0BB2059F0DD2024
:1014C00029F08D2D0E94EF190E94F51980E00E94ED
:1014D0000F2C99C180E00E94EE2BDD2009F493C10E
:1014E0008D2D0E94E8190E94F5198DC1BB2081F154
:1014F000CC2009F456C0F1E0CF1212C08091BB019C
:101500008D21D81609F47FC10E94B6209093BA01AC
:101510008093B9018091BB01D82AD092BB0173C1DD
:1015200080912803823008F46EC1C8126CC18D2DE1
:101530000E94E72B8D2D0E94CC198091AB039D2D2D
:101540009823D91609F45FC1D82AD092AB035BC1A6
:10155000CC2069F080912803823008F454C121E046
:10156000C21251C1809121028D2109F44CC18D2DEF
:101570000E94E02B8D2D0E94CC198D2D0E942128D8
:1015800042C180912E03BB2021F08C1508F43BC191
:1015900008C0C81608F037C10AC0BB2031F0C1101E
:1015A00012C18D2D0E94E72B2EC1C11015C18D2DAA
:1015B0000E94E02B28C16B2D812F0E94283429C165
:1015C000802F8370A1F5B11022C1412F429546951D
:1015D0004770440F440F212F2F7030E0C901042EB3
:1015E00001C0880F0A94EAF714FF08C02FE030E02A
:1015F00001C0220F4A95EAF7209501C020E0302F64
:10160000369536953370323069F040F44091690177
:10161000313019F0822B842302C0842B822B0E944C
:101620000E29F5C0282B809169018227F8CFBB20B5
:1016300019F0802F817001C08695882309F4E7C0D6
:10164000412F429546954770440F440F212F2F702C
:1016500030E0C901042E01C0880F0A94EAF714FF94
:1016600008C02FE030E001C0220F4A95EAF720952C
:1016700001C020E0302F369536953370323051F06E
:1016800070F440916A01313019F0822B842308C034
:10169000842B05C0282B80916A01822701C0822BF0
:1016A0000E94D028B4C0302F3F70D32EBB2039F019
:1016B000832F0E940229812F0E94E72BA8C0812F2F
:1016C0000E94E02B8D2D0E94F528A1C0123F11F140
:1016D00028F4103F41F0113FA9F171C0133F01F10F
:1016E000143F61F16CC080912E03BB2021F0C8161D
:1016F00008F089C003C08C1508F485C0202F2F7115
:1017000081E090E001C0880F2A95EAF790916A0184
:10171000892711C0802F8F71BB2009F458C06FC07A
:10172000BB2041F081E0902F9F7101C0880F9A95F6
:10173000EAF701C080E00E94D02865C0809147038D
:1017400082FD06C0802F8F71BB2009F458C03FC0B6
:1017500080912803823008F1BB2089F0909190019C
:101760009770943039F40E94471A802F8F710E942D
:10177000F52848C0C81608F045C063E005C0C81683
:1017800040F00E94471A64E0802F8F710E947C1AFB
:1017900039C081E00E944E1A35C0BB2031F063E0B1
:1017A000802F8F710E947C1A2EC081E00E944E1AF9
:1017B00041E04C1540F582E00E944E1A24C0BB2047
:1017C00049F0CC2011F0812F82CE802F8F710E94A2
:1017D000022919C0CC2089F0193329F480912C03F7
:1017E00090912D0304C080912A0390912B030E94B5
:1017F000C325812F0E94EE2B06C0802F8F710E947F
:10180000F52801C0A12C88EF890D843010F40E94C6
:101810005021812F902F0E941129811105C0109213
:101820005A011092590128C0BB2019F0C110F7CFFE
:1018300023C0C110F4CF20E0D7014C9111965C91E8
:10184000119712966C91129713967C911397149698
:101850008C91149715969C910E948A2C8091290353
:1018600083FFDDCF8091590190915A010297B9F61B
:10187000812F0E947C2CD3CFAA20A9F080919001C7
:1018800080FD11C0F70115828695869586950E9488
:101890000229C7010E945003809190018695869588
:1018A00086950E94F52860E0C7010E94AF2C2C9617
:1018B000E2E10C94EA36A9E3B0E0E1E6FCE00C9446
:1018C000CE3685B7806885BF85B7806885BF84B709
:1018D000877F84BF0FB6F894A895809160008861D7
:1018E00080936000109260000FBE90E080E80FB619
:1018F000F89480936100909361000FBE8AE994E1AF
:1019000090935501809354010E94EA310E948831DE
:101910000E9414310E94B5300E94641E0E94831EF2
:101920008091E20084608093E20078948091EF01DE
:101930008823A1F01091E9001F709091EC00892F8D
:10194000817090FD80E8182B1092E9008091E800EA
:1019500083FD0E94491B1F701093E90082E084BD43
:1019600093E095BD9AEF97BD80936E0010925B0156
:1019700010925C0110925D0110925E010E9485211F
:10198000811102C00E946A278091D80080618093F3
:10199000D8002AE12A95F1F700C08091D900182FCC
:1019A000117080FD04C00E94641E1092EF0110931C
:1019B0004203109343031093010111110E946835F3
:1019C0008091010180910101882311F090E001C014
:1019D00094E09093680184E0891B8093670109E398
:1019E00011E0D8018D918D018F3F11F00E945A16A0
:1019F000B1E00E331B07A9F70EE311E052E4E52E28
:101A000051E0F52EF80181918F018F3F11F00E9476
:101A10005A16E016F106B1F788E0E4E8F1E0DF01DC
:101A2000282F1D922A95E9F7EFE5F1E0DF011D92DD
:101A30008A95E9F780E090E00E942637853E9E4F28
:101A400021F40E948521811163C065EE7EEF80E064
:101A500090E00E945A3760E082E090E00E943C37BC
:101A600081E08093690161E083E090E00E943C376F
:101A700060E074E184E090E00E945A3760E086E024
:101A800090E00E943C3760E087E090E00E943C37A5
:101A900040E050E0BA0188E090E00E944E3760E0FC
:101AA00083E290E00E943C3760E08CE090E00E948E
:101AB0003C3760E08DE090E00E943C3719821A824A
:101AC0001B821C821D821E821F82188648E050E005
:101AD00067E170E0CE0101960E942C3740E050E0B3
:101AE000BA018FE190E00E944E3780E00E946621AB
:101AF0000E946A2740E050E0BA018FE090E00E9427
:101B00004E3740E050E0BA0183E190E00E944E374A
:101B100082E090E00E941E3780936B0184E090E0A9
:101B20000E94263790934703809346030E947116C4
:101B3000EFEFF6E721E0E150F0402040E1F700C090
:101B400000000E9471168091840180FF08C06FEF31
:101B50007FEF80E090E00E945A370E94482083E0A7
:101B600090E00E941E370E940E298091420381114D
:101B700002C00E946B3582E091E090934503809310
:101B800044032E013BE2430E511C8091EF0185304E
:101B900009F045C000E112E18091EF01853009F0C4
:101BA0003AC08091EF01843021F11092480388E11E
:101BB00090E0A0E40FB6F894A895809360000FBE63
:101BC000A093600083B7817F846083BF83B7816007
:101BD00083BF7894889583B78E7F83BF0FB6F894C0
:101BE000A8958091600088618093600010926000E9
:101BF0000FBE8091EE01882309F4CECF0E947116AA
:101C0000E4E8F1E08191811176C62CE831E02E17ED
:101C10003F07C1F7C1CF0E94392B0E9450210E947B
:101C200071160CE611E044E8C42E41E0D42ED60132
:101C3000F80191918D91892731E0E437F30719F08C
:101C40008823B9F305C0811103C00E944D193BC020
:101C50003090420334E8E32E31E0F32EB12C6624B9
:101C60006394D7018D907D01F8017080782419F17B
:101C7000A12C99249394892D8721B1F03320A1F0D0
:101C8000ACAABDAA0E94B6209FAB8EAB68AE91E015
:101C9000892D882109F490E099AF4CA95DA96EA91E
:101CA0007FA988AD0E94BE2CA394990CF5E0AF12D9
:101CB000E2CFD8018C92B3940F5F1F4FB8E0BB12F4
:101CC000D0CF0E94D61780914203882309F4B5C073
:101CD0008091070390910803892B89F16091FC02A0
:101CE0007091FD028091FE029091FF020E947F2080
:101CF0000091F8021091F9022091FA023091FB0252
:101D00006017710782079307D0F0809107039091C5
:101D100008030E945A2F1092080310920703109292
:101D2000FC021092FD021092FE021092FF0210922D
:101D3000F8021092F9021092FA021092FB028091BE
:101D4000400390914103892B51F18091740190914E
:101D500075010E949B208C0189E0F20111928A9505
:101D6000E9F7B20180914003909141030E94CC3188
:101D700080179107A0F48091400390914103992727
:101D800024E0880F991F2A95E1F7FC01E753FC4FE7
:101D9000208122FD04C08C539C4F0E94BD21809164
:101DA0002801882341F18091F4029091F502009777
:101DB00011F10E949B202091460230914702281782
:101DC0003907C8F49091F2028091F302981759F004
:101DD0000E94FB2410924702109246021092F502D4
:101DE0001092F40208C00E9491241092F502109201
:101DF000F4020E94DB248091270380FF1EC08091A3
:101E0000270182FF1AC00E94B62020914202309121
:101E10004302AC01421B530B209125013091260156
:101E20004217530750F026E731E041E0BC018091B2
:101E30004402909145020E94CE2586E0E6E3F3E05D
:101E40008E010F5F1F4FD80101900D928A95E1F727
:101E500090903703A0903803B0903903E0903A0394
:101E6000F0903B03109238031092390310923A031A
:101E700010923B03A11003C0BB2009F454C0809111
:101E80003403909135030E949B20AC0190910B0389
:101E9000992339F020912F0130E02417350758F0AD
:101EA00042C020913001FAE02F9F900111242417A5
:101EB000350718F038C09F3F19F09F5F90930B03D0
:101EC000AA2061F00E94B9221A1414F491E001C012
:101ED0009FEF899F802D112480933803BB2061F0F0
:101EE0000E94B9221B1414F09FEF01C091E0899F5A
:101EF000802D11248093390380913803882399F031
:101F000080903903882079F00E940823811101C054
:101F100081E080933803882D0E940823811101C03D
:101F200081E080933903E11003C0FF2009F454C01D
:101F300080913203909133030E949B20AC019091D9
:101F40003003992339F020912D0130E02417350713
:101F500058F042C020912E018AE0289F9001112460
:101F60002417350718F038C09F3F19F09F5F9093F2
:101F70003003EE2061F00E9480221E1414F491E0E0
:101F800001C09FEF899F802D112480933A03FF2089
:101F900061F00E9480221F1414F09FEF01C091E0B5
:101FA000899F802D112480933B0380913A038823DD
:101FB00099F080903B03882079F00E9408238111DA
:101FC00001C081E080933A03882D0E94082381118B
:101FD00001C081E080933B038091370389111AC0CF
:101FE00080913803882311F08A1114C0809139033D
:101FF000882311F08B110EC080913B03882311F0D0
:102000008F1108C090913A03992331F081E09E111D
:1020100004C002C081E001C080E080FD15C0809155
:10202000380381110FC08091390381110BC0809159
:102030003A03811107C081E090913B03911103C0E5
:1020400080E001C081E080FD0E9456229A82AB822E
:10205000BC82ED82FE8286E0F801A6E3B3E0019047
:102060000D928A95E1F70E94502190917F01891786
:1020700021F080937F010E94AA208091EF0184309B
:1020800009F083CD83E08093E9008091E80082FF2E
:102090007CCD8091E80085FF21C00E94B51F811191
:1020A0001BC080E2E82EF12C580109C08091F1009C
:1020B000D5018D935D01B1E0EB1AF10869F08091D3
:1020C000E80085FDF3CF8091E8008B778093E800EE
:1020D0000E94B51F882399F391E001C090E08091A0
:1020E000E8008B778093E800992309F44ECDE090C7
:1020F0008C01F0908D018981E114F10461F08E3F33
:1021000009F0F2C38A81833008F4B7C18550833067
:1021100008F0EAC3B2C18B3009F496C110F58530DE
:1021200009F46BC0B0F48230C1F130F4813009F0B1
:10213000D9C31A8289E004C3833009F451C08430C2
:1021400009F0D0C34C816B818A810E9435249D8324
:10215000EFC3873009F4C6C308F0C4C30E94D32676
:10216000C3C3803109F4B1C060F48D3009F452C0AA
:1021700008F44EC08E3009F450C08F3009F477C097
:10218000B1C3823109F4A7C008F4A2C0833109F4B5
:10219000CCC08E3F09F471C1A5C38A81823009F495
:1021A000C0C3833051F0813009F09CC30E94AA2043
:1021B0009B838C837D836E8397C38091F60290917D
:1021C000F702892B09F490C3FE013396CE010B96DA
:1021D000D6012D916D0121938E179F07C9F784C3F6
:1021E0008A81823009F07EC36B817C818D819E81E2
:1021F0000E94A6370E94612177C32D813E8132273C
:10220000232732274C816B818A810E940E246CC364
:1022100080E15FC01A828CE693C2EA80FB80FE24D4
:10222000EF24FE24AC80B12CBDE1AB16B10408F064
:102230005BC36801C7018C569C4F9601201B310B74
:102240002A153B0508F050C3ECE6EE16F10430F415
:102250000E941E37D60114968C9302C0F601148298
:10226000FFEFEF1AFF0A2FEFC21AD20AE3CF8091D5
:10227000F6029091F702892B09F436C3EA80FB80BD
:10228000FE24EF24FE24CC80D12C3DE1C316D104E2
:1022900008F02AC35801C7018C569C4F9501201B9A
:1022A000310B2C153D0508F01FC34CE6E416F10474
:1022B00028F4D50114966C910E943C37BFEFEB1ABD
:1022C000FB0AEFEFAE1ABE0AE6CF0E94E9230CC369
:1022D00087E08A8309C3EA80FB80FE24EF24FE2482
:1022E000AC80B12CFDE1AF16B10408F0FDC268016D
:1022F000C70188969601201B310B2A153B0508F073
:10230000F3C220E3E21622E0F20630F40E941E3708
:10231000D60114968C9302C0F6011482FFEFEF1AD7
:10232000FF0A2FEFC21AD20AE3CFEA80FB80FE2415
:10233000EF24FE24AC80B12C3DE1A316B10408F0DB
:10234000D3C240E3E41642E0F40608F0CDC280E3D5
:1023500092E08E199F098A159B0508F4C5C23701C2
:1023600088E2680E711C8091F6029091F702892B29
:1023700011F0680160C0E0FE0FC0C70187960E949F
:102380001E3790E0982F88272D81822B81159C473E
:1023900031F48FEF8D8303C0C12CD12C03C0CC242A
:1023A000C394D12CC7018A0D9B1D450180FF1BC022
:1023B000B1E08B1A9108E5E02E2E312C2C0E3D1E3B
:1023C000280C391CC3018A0D9B1D0E941E37F10188
:1023D000208130E0322F2227282B21153C4719F489
:1023E0008FEFD1018C93F801EC0DFD1D2FEFCF0184
:1023F000801B910B8815990508F0BBCF848190E074
:10240000982F88273581832B81159C4711F42483CD
:1024100025833296ECCFE0E3EE16E2E0FE0628F4E8
:10242000D60114966C910E943C37BFEFEB1AFB0A61
:10243000EFEFCE1ADE0AC70188969601201B310BFA
:102440002A153B0540F350C28091F6029091F702A5
:10245000892B09F449C240E250E0B80182E00E94B1
:10246000E81FFFEF21EE34E0F15020403040E1F76B
:1024700000C000000E94482037C2EA818E2F90E001
:102480008E30910508F030C2FC01E557FF4F0C94E7
:10249000A03788E0E1E3F1E0DE01919601900D9232
:1024A0008A95E1F780E2D8011D928A95E9F786E0E6
:1024B000898388E0FE01B196DE011596E8C188E6C1
:1024C000898381E08A831B821C820EC28C8190E00A
:1024D000982F88272B81820F911D092E000CAA0BA3
:1024E000BB0B65E0880F991FAA1FBB1F6A95D1F728
:1024F000AC01BD01405E5F4F6F4F7F4F48175907DA
:102500006A077B0708F4F0C18836E1E09E07A10561
:10251000B10508F0E9C14936F1E05F0761057105D1
:1025200020F048E651E060E070E0481B590BBC0128
:102530006C5A7E4FC8010E940537D6C140E250E078
:102540006FEF70E0C8010E94C3378091F602898363
:10255000EA821B821C8286E08D831E82C5C181E0D7
:1025600090E090938D0180938C0182E390E09093B2
:102570008301809382010E94B62090938101809311
:102580008001B2C1EF28A9F1F090840180918A0105
:10259000F8222F2D2170F22E8091800190918101DF
:1025A0000E949B2085369105F0F0FF20E1F00E940B
:1025B000B620909381018093800180918201909157
:1025C000830101979093830180938201892B89F481
:1025D00010928D0110928C0181E090E09093F702AF
:1025E0008093F60206C082E390E09093830180938B
:1025F00082018091F602898380918C018A83809187
:1026000082019EC01092F7021092F6026DC1EB801B
:10261000FC8040E250E06FEF70E0C8010E94C337D9
:1026200025EB34E0A1EBB5E080E090E0AC014E5F3B
:102630005F4F4132510508F057C1F901659174911E
:10264000E616F70630F4F801E80FF91F718360838E
:10265000CA01245F3F4FA217B30741F745C12B8141
:102660003C8185EB94E0FC0145915491241735079A
:1026700031F00C9645E0813B9407A9F733C10097F0
:1026800009F430C1FC0136962591349121153105AC
:1026900009F428C14FE150E0BE016E5F7F4FF901A0
:1026A000099521C12B813C8181EB95E045EBE42E1E
:1026B00044E0F42EF701459154914217530739F045
:1026C000FCE0EF0EF11C8E159F05A1F70BC1E11484
:1026D000F10409F407C1F7013896259134912115C9
:1026E000310509F4FFC04CE150E0BE016B5F7F4F44
:1026F000C701F9010995009709F0F5C0F7013A966D
:1027000085919491009711F0FC01099580E0EBC050
:102710000E948126E9C0EB818E2F90E087309105E1
:1027200008F0E2C0FC01E756FF4F0C94A03780E2AE
:10273000D8011D928A95E9F78CE0898388E08A8325
:102740008B83D2C08C819AE0D92E7E01B1E2EB0E50
:10275000F11CF7012D2D11922A95E9F7B7010E947E
:10276000F9238983F701DE01129601900D92DA9424
:10277000E1F7BAC0FC808AE0FE013596DE01919651
:1027800001900D928A95E1F789A19AA10E94533395
:102790009AA389A38BA19CA10E9453339CA38BA3D2
:1027A0008DA19EA10E9453339EA38DA38FA198A5B6
:1027B0000E94533398A78FA33BE03F1570F04AE087
:1027C000F49EB001112464587D4F4AE050E0CE01E0
:1027D00081960E94603780E001C08FEF89830E945C
:1027E000EA3182C06C81CE0181962AE0DC011D9223
:1027F0002A95E9F7683008F043C0BAE06B9FB00152
:1028000011246C507D4F36C0FC808AE0FE01359665
:10281000DE01919601900D928A95E1F789A59AA51E
:102820000E9453339AA789A7E7E0EF1570F0FAE00A
:10283000FF9EB00111246C507D4F4AE050E0CE0164
:1028400081960E94603780E001C08FEF89830E94EB
:1028500088314AC06C81CE0181962AE0DC011D924C
:102860002A95E9F7683060F4BAE06B9FB001112453
:102870006C5B7C4F4AE050E00E940E3780E001C064
:102880008FEF89838AE0FE01B196DE0112960190F6
:102890000D928A95E1F728C0FC808AE0FE0135960A
:1028A000DE01919601900D928A95E1F78BA19CA192
:1028B0000E9453339CA38BA3E7E0EF1570F0FAE07E
:1028C000FF9EB00111246C5B7C4F4AE050E0CE01CA
:1028D00081960E94603780E001C08FEF89830E945B
:1028E000143102C08FEF898340E250E0B80182E0EA
:1028F0000E94E81F4AC909BD19BD09B400FEFDCFF9
:102900008091D8008F7D8093D8008091E000826014
:102910008093E0008091E00081FDFCCF0E94392B84
:102920003BC987E290E00E941E371B821C821D82F9
:102930008E83DACF80E008959091460392FF10C015
:1029400041E0282F2471243009F040E031E0282FA5
:102950002871283009F030E0431711F02CE082276D
:1029600093FF10C041E0282F2471243109F040E08A
:1029700031E0282F2871283109F030E0431711F099
:102980002CE082273091470330FF10C051E0282F00
:102990002171213009F050E041E0282F28712830C2
:1029A00009F040E0541711F029E0822731FF10C0F0
:1029B00041E0282F2171213109F040E031E0282F3A
:1029C0002871283109F030E0431711F029E08227FF
:1029D00094FD877E08958238910569F1B0F48133C2
:1029E000910509F475C048F48932910509F467C06E
:1029F0008A32910509F471C008958533910509F46F
:102A000059C089339105B9F00895833E910589F144
:102A100038F4803E9105D1F0823E910529F1089568
:102A2000863E9105C9F1873E9105D9F1843E910515
:102A300009F06CC027C02091460320FD57C021FD3E
:102A400055C02091470323FD5BC008958091460344
:102A500080FD48C08091470380FF48C080914603B5
:102A600084FD46C083EE51C08091460382FF3CC086
:102A7000F5CF8091460382FD37C08091470380FDEA
:102A800035C0ECCF8091470381FF36C0809146036B
:102A900084FD2EC087EE39C08091460383FF2AC093
:102AA000F5CF8091460383FD25C08091470381FDCA
:102AB00023C0ECCF8091460385FD22C01FC08091CA
:102AC000460385FD1BC08091470383FF19C00AC0E0
:102AD0008091460386FD16C017C08091460386FD8F
:102AE00013C010C089E311C082EE0FC080EE0DC08C
:102AF00080E00BC086EE09C084EE07C085E305C008
:102B000089E203C08AE201C081E390E00895A0E079
:102B1000B0E0EDE8F5E10C94D6367C015B016A018A
:102B20008091DD018A3018F001E010E002C00AE077
:102B300010E0C1E0D0E0B501C701F60109958111AF
:102B400015C021960C171D0794F0CC9F9001CD9FC6
:102B5000300D300D112480E090E045E34A95F1F707
:102B60000000019682179307C1F7E5CF81E0CDB74A
:102B7000DEB7EAE00C94F236EF92FF921F93CF9308
:102B8000DF9300D000D01F92CDB7DEB77B0180E08D
:102B900090E00E945336882309F456C040910F01FB
:102BA00050E04115510511F041E050E060911001F5
:102BB0007091110160537E4FCE0105960E94BA3785
:102BC0006091CC017091CD018091CE019091CF01A7
:102BD0000E947F20643671058105910538F481EDEE
:102BE00091E00E9411349D81891781F181E090E08C
:102BF0000E945336182F882391F04091170150E01E
:102C00004530510510F044E050E06091180170919A
:102C1000190160537E4FCE0101960E94BA3781EDB3
:102C200091E00E94113491E02D81281390E0192346
:102C300041F10E94AA206093CC017093CD01809352
:102C4000CE019093CF010FC010E001C011E0809140
:102C5000D1019091D201A091D301B091D401898387
:102C60009A83AB83BC83112361F089819A81AB8104
:102C7000BC818093C8019093C901A093CA01B0930D
:102C8000CB018091C8019091C901A091CA01B09176
:102C9000CB01F70180839183A283B383812F0F90AF
:102CA0000F900F900F900F90DF91CF911F91FF9099
:102CB000EF900895F894E82FE295EF70F0E031A1DD
:102CC000282F2F7081E090E001C0880F2A95EAF745
:102CD000982F9095932391A392A1892B82A3789406
:102CE0000895ACE0B0E0E7E7F6E10C94D436AE012D
:102CF0004F5F5F4F7A0188E0DA011D928A95E9F70C
:102D000009E311E099249394CC24C394D12C5E015F
:102D1000B5E0AB0EB11CF80180818F3F09F444C0CF
:102D2000F894E82FE295EF70F0E021A18F70A601F2
:102D300002C0440F551F8A95E2F7CA01922F982BC3
:102D400091A392A18095892382A3789400C04EE339
:102D500051E0F701392D3095DA012D91AD012F3F6A
:102D600099F0822F82958F7090E0DC0190968C9183
:102D700090E02F7002C0959587952A95E2F780FD27
:102D800003C08081892902C080818323808331969A
:102D9000AE16BF0609F7F80180818F3F11F00E943F
:102DA0005A16F0EAFA95F1F7990C0F5F1F4F21E0E0
:102DB0000E33120709F0AFCF48E050E0B7018FE5BE
:102DC00091E00E94AD37892B99F088E0F701AFE5DB
:102DD000B1E001900D928A95E1F781E08093C00106
:102DE0000E94B6209093BF018093BE01F12C27C0B2
:102DF0008091C0018823D1F3009168018091BE01C8
:102E00009091BF010E949B20059780F310E00C5722
:102E10001E4F44E050E06FE571E0C8010E94AD37FD
:102E2000892B09F4C1C084E0EFE5F1E0D8010190FD
:102E30000D928A95E1F7FF24F3941092C0018091DE
:102E40004203E0916801882309F46DC019861A864F
:102E50001B861C860E2F10E00C571E4F8091DD0143
:102E60008A3058F44CEB55E1BE01675F7F4FC801D3
:102E70000E948715882349F10AC08091C101909171
:102E8000C2010E949B20843F914060F72FC040EF19
:102E900057E1BE01675F7F4FC8010E9487158823F5
:102EA000A1F01092DD018091670190E044E050E0D4
:102EB000BE01675F7F4F8C579E4F0E94AD3721E068
:102EC0002093C701892B01F569C08091DD018F3FF7
:102ED00019F08F5F8093DD018091DD018A3018F356
:102EE0000E94B6209093C2018093C1018091C701D6
:102EF000882309F453C0FE01399684E0DF011D9256
:102F00008A95E9F71092C701E0916701F0E0EC576C
:102F1000FE4F89859A85AB85BC8580839183A2838A
:102F2000B38381E03CC0F0E0EC57FE4F84E0A1EDBC
:102F3000B1E001900D928A95E1F781ED91E00E9458
:102F400011348093D0018090D5019090D601A0904B
:102F5000D701B090D8018091C3019091C401A09194
:102F6000C501B091C60188169906AA06BB06B1F044
:102F70008092C3019092C401A092C501B092C60193
:102F80000E94AA20861A970AA80AB90A80925B01B1
:102F900090925C01A0925D01B0925E0180E08F2969
:102FA0002C96ECE00C94F036F12C47CF0F931F9346
:102FB00080914203882319F00E94AA200EC00E942B
:102FC000AA2000915B0110915C0120915D0130917C
:102FD0005E01600F711F821F931F1F910F91089553
:102FE000A4E0B0E0E6EFF7E10C94DE366091D901A1
:102FF0007091DA018091DB019091DC010E947F20C9
:10300000643671058105910570F10E94D617DC01C7
:10301000CB010296A11DB11D89839A83AB83BC832A
:1030200080911D0190911E0180539E4F40911C0183
:1030300050E04530510510F044E050E0BE016F5FB4
:103040007F4F0E94BA3782E090E00E945336882377
:1030500059F00E94AA206093D9017093DA018093FD
:10306000DB019093DC0181E02496E2E00C94FA36D7
:1030700020918C0130918D01232BA1F4703F39F404
:10308000603F81F48091AC039091AD030895783056
:1030900048F4653038F4873028F4462F672F0E94B3
:1030A0003524089580E090E008951F93CF93DF9337
:1030B0000E94EB14EC01C11582E5D807C8F5C115D3
:1030C00090E5D90708F0BBC0C83ED105C0F4C03EAA
:1030D000D10508F0DDC0C53AD10550F4C430D105A2
:1030E00008F0D6C0219709F0D0C081E090E0D1C0AF
:1030F000CD3CD10508F4C9C0CE019065CAC0C11548
:1031000080E4D80708F05AC0C11590E2D90708F04A
:10311000AFC0C11581E0D80708F4B7C08D2F0E9459
:103120009C14182FCE0199270E94EB141F71ABC07D
:10313000C03892E5D90720F5C03682E5D80708F0F7
:1031400061C0C03492E5D90708F04AC0C03282E5B8
:10315000D807F0F54C2F4695469590E2499FA0017F
:103160001124C37021E030E0C90102C0880F991F0B
:10317000CA95E2F7EA01C82BD92BCE019D6889C018
:10318000C03C92E5D90768F48C2F8F71C03AD245C4
:1031900008F04CC090E0D82FCC27CE01846F906A05
:1031A00078C0C03E82E5D80708F06FC0CF71DD2738
:1031B000DC2FCC27CE01806F906A6BC0CE0199279F
:1031C0000E94EB14CC27DF70D06A8C2B9D2B61C042
:1031D000CF71D0E0DC2FCC27CE01816F906A59C02F
:1031E0008C2F8F718695869590E2899F900111248E
:1031F000C37081E090E002C0880F991FCA95E2F782
:103200009C6811C08C2F8F718695869590E2899F5E
:1032100090011124C37081E090E002C0880F991FD3
:10322000CA95E2F79A68822B932B33C00E949C14B4
:103230008F7190E0D82FCC27CE0190622AC08C2FBE
:103240008F710E949C1495E0D695C7959A95E1F7E9
:10325000CF70D0E0DC2FCC27282F30E084FF05C0D2
:1032600084E0220F331F8A95E1F7D069CE01DBCFCE
:103270008D2F8F710E949C14182FCE0199270E94C8
:10328000EB141F719062912B04C080E090E001C0AC
:10329000CE01DF91CF911F910895A6E0B0E0E3E564
:1032A000F9E10C94DC360E94B6208C018091BC01BF
:1032B0009091BD010817190781F019821A820E94A6
:1032C000B620682F49815A81792F80E090E00E94D2
:1032D000BE2C1093BD010093BC012696E4E00C9433
:1032E000F8368091BB01882331F01092BB01109217
:1032F000BA011092B9010895CF93C0912102809133
:103300003F03C82B8091BB01882349F180910E03B4
:1033100090910F03892B29F00E94072881110E94A8
:1033200071198091BB01C82B80912401882341F041
:103330008091460387FF04C02EE183E092E003C042
:1033400026E08BEF91E0FC0180E0215028F0919184
:103350009923D9F38F5FF9CF81110E947119809160
:1033600004038095C823809105038C2BCF91089589
:10337000CF939091470392FF0DC09091BB01981796
:1033800049F0C82F0E94B6209093BA018093B901EA
:10339000C093BB01CF9108959091BB01292F2823A1
:1033A00079F0809589238093BB01882319F00E94CE
:1033B000B62002C080E090E09093BA018093B901FA
:1033C0000895809590913F03892380933F0308954A
:1033D00080959091210289238093210208959091F4
:1033E0002102892B80932102089580912401882352
:1033F00051F18091460387FF26C00E947C1980937B
:10340000020240E250E061E971E081E092E00E9456
:10341000AD37892BD9F180E2E1E0F2E0A1E9B1E03A
:1034200001900D928A95E1F7E0914403F0914503F4
:10343000309761F186E0809301020480F581E02DF0
:1034400081E092E022C00E947C198093F90148E05B
:1034500050E061EB71E089EF91E00E94AD37892B7C
:10346000A9F088E0E9EFF1E0A1EBB1E001900D9265
:103470008A95E1F7E0914403F0914503309731F0EC
:103480000280F381E02D89EF91E009950895109273
:10349000900110928F0110928E01089590919001E9
:1034A0008095892380939001282F277069F49817BD
:1034B00059F09091470392FF07C0869586958695AF
:1034C0000E94F5280E94471A08959091470392FBA5
:1034D000222720F9281779F080FB92F9909347036F
:1034E000609146037091470384E090E00E945A3750
:1034F00082E00E944E1A08959091470392FF10C0F7
:1035000098E0899F90011124262B209390010E941E
:1035100002290E94B62090938F0180938E01089516
:103520000E94022908958091F10187FF11C08091C6
:10353000E80082FD05C08091EF018111F8CF11C034
:103540008091E8008B770BC08091EF01882349F0D0
:103550008091E80080FFF8CF8091E8008E7780931B
:10356000E8000895982F973068F59093E900981730
:1035700039F07091EC002091ED005091F00003C003
:10358000242F762F50E021FD02C09F5FECCF3091B9
:10359000EB003E7F3093EB003091ED003D7F3093A8
:1035A000ED003091EB0031603093EB007093EC0054
:1035B0002093ED005093F0002091EE0027FDE5CF21
:1035C00080E008958F708093E90081E00895209154
:1035D000F7013091F8012617370748F0611571059A
:1035E00039F42091E8002E772093E80001C0B9015A
:1035F000FC0120E06115710579F18091EF018823CC
:10360000F1F18530F1F18091E80083FD3CC08091BB
:10361000E80082FD2EC08091E80080FFEBCF209172
:10362000F3008091F20090E0922B6115710551F04A
:103630008830910538F421912093F100615071098F
:103640000196F3CF21E0089709F020E08091E8008F
:103650008E778093E800CECF2111CFCF0AC0809122
:10366000EF01882361F0853061F08091E80083FDEF
:103670000AC08091E80082FFF2CF80E0089582E0E6
:10368000089583E0089581E0089508958091E4010C
:103690000895AAE2B0E0EFE4FBE10C94DD36E1EF3F
:1036A000F1E089EF91E02091F10021938E179F07BF
:1036B000D1F78091F201833009F463C030F4813096
:1036C00071F0823009F49DC0B4C08A3009F489C019
:1036D0008B3009F46EC0893009F0ABC020C08091F6
:1036E000F101813A09F0A5C08091E800877F8093BD
:1036F000E8008091F5019091F601892B21F468E0B2
:1037000085EE91E003C060E080E090E070E00E9410
:10371000E71A8091E8008B778093E8008AC0809157
:10372000F101813209F085C08091F5019091F60197
:10373000009719F0029709F07CC08091E800877F1C
:103740008093E8008091E80082FD05C08091EF0140
:103750008111F8CF6EC02091F3008091F20090E0CB
:10376000922B029731F48091F100813011F0863074
:1037700021F48091F1008093E4018091E8008B773F
:1037800054C08091F101813A09F053C08091F50154
:103790009091F601892B09F04CC08091E800877F59
:1037A0008093E8008091E80080FFFCCF80912401A5
:1037B00037C08091F1018132E1F58091F50190915E
:1037C000F601892BB1F58091E800877F8093E800AE
:1037D0000E94931A8091F301809324010E94392B57
:1037E00028C08091F101813221F58091E800877F26
:1037F0008093E8000E94931A8091F4018093E30182
:1038000018C08091F101813AA1F48091E800877F8E
:103810008093E8008091E80080FFFCCF8091E30175
:103820008093F1008091E8008E778093E8000E94F9
:10383000931A8091E80083FFEBC18091F101909190
:10384000F201492F50E04A30510508F0E1C1FA0178
:10385000E056FF4F0C94A037803821F0823809F0F1
:10386000D7C108C08091ED019091EE01992389F0B4
:1038700082600FC08091F5018F70873008F0C8C159
:103880008093E9008091EB0085FB882780F91092F6
:10389000E9009091E800977F9093E8008093F10011
:1038A0001092F1007CC1282F2D7F09F0B1C188232F
:1038B00019F0823061F0ACC18091F301813009F0E0
:1038C000A7C1933009F080E08093EE012EC0809173
:1038D000F30181112AC08091F5018F702FEF280F1D
:1038E000263008F095C18093E9002091EB0020FF7D
:1038F0001CC0933021F48091EB00806214C0909141
:10390000EB0090619093EB0021E030E0A90102C050
:10391000440F551F8A95E2F74093EA001092EA009F
:103920008091EB0088608093EB001092E900809119
:10393000E800877F8093E8000E94931A69C1811193
:1039400067C11091F3011F778091E3008078812B8C
:103950008093E3008091E800877F8093E8000E94D5
:10396000931A8091E80080FFFCCF8091E30080688B
:103970008093E300111102C082E001C083E08093D4
:10398000EF0146C18058823008F042C12091F30116
:103990003091F4012C3D53E0350779F583E08A83BB
:1039A0008AE289834FB7F894DE01139620E03EE067
:1039B00051E2E32FF0E050935700E49120FF03C061
:1039C000E295EF703F5FEF708E2F90E0EA3010F0DD
:1039D000C79601C0C0968D939D932F5F243149F700
:1039E0004FBF8091E800877F8093E8006AE270E033
:1039F000CE0101960E94E71AC0C08091F501909116
:103A0000F601432F552743305105B1F068F441309A
:103A1000510509F40CC14230510509F0F9C08BE59C
:103A200090E0E6EAF3E057C04132510589F14232B5
:103A3000510509F43CC0ECC0C901992781309105BA
:103A4000B9F070F082309105D9F0039709F0E0C029
:103A5000E3E1F4E0E4918E2F90E0E3E1F4E038C09C
:103A6000E1E6F4E0E4918E2F90E0E1E6F4E030C08E
:103A7000E1E5F4E0E4918E2F90E0E1E5F4E028C088
:103A8000E1E3F4E0E4918E2F90E0E1E3F4E020C084
:103A90008330910508F0BCC0880F991FFC01E35BDF
:103AA000FE4F0190F081E02D89E090E014C083305A
:103AB000910508F0ADC0FC01EE0FFF1FE95BFE4F62
:103AC0000190F081E02DDC01AC5BBE4F8C9190E069
:103AD000009709F49DC02091E800277F2093E8001B
:103AE0002091F7013091F8012817390708F4C9012E
:103AF00040E0009789F12091EF01222309F43DC0B5
:103B00002530D9F12091E80023FD37C02091E8004D
:103B100022FD2FC02091E80020FFEBCF4091F30061
:103B20002091F20030E0342B009759F02830310515
:103B300040F444914093F100319601972F5F3F4F3D
:103B4000F3CF41E02830310509F040E02091E80052
:103B50002E772093E800CDCF4111CDCF0AC08091C0
:103B6000EF01882351F0853041F08091E80083FD1A
:103B700004C08091E80082FFF2CF8091E8008B774B
:103B80008093E80045C0803809F042C08091E80089
:103B9000877F8093E8008091F0018093F10080910D
:103BA000E8008E77C7CE811133C08091F3019091E8
:103BB000F4019927029764F58091E800877F80934C
:103BC000E8001091F3011093F0010E94931A111173
:103BD00006C08091E30087FD02C081E001C084E05F
:103BE0008093EF0142E061EC81E00E94B21A42E270
:103BF00061EC84E00E94B21A42E261EC82E00E9431
:103C0000B21A42E260EC83E00E94B21A8091EF01A6
:103C10008091E80083FF10C08091E800877F809347
:103C2000E8008091EB0080628093EB0005C082E1A8
:103C300090E0E1E0F4E04FCFAA96E3E00C94F9368F
:103C40001F920F920FB60F9211242F933F934F9311
:103C50005F936F937F938F939F93AF93BF93CF9314
:103C6000DF93EF93FF93C091E900CF708091EC0058
:103C7000D82FD17080FDD0E81092E9008091F0003B
:103C8000877F8093F00078940E94491B1092E9008E
:103C90008091F00088608093F000CD2BCF70C093AE
:103CA000E900FF91EF91DF91CF91BF91AF919F918B
:103CB0008F917F916F915F914F913F912F910F90D5
:103CC0000FBE0F901F901895E8EDF0E080818E7F79
:103CD00080831092E2001092DA001092E100A0EED0
:103CE000B0E08C9181608C9380818F77808319BC48
:103CF000A7EDB0E08C918E7F8C9380818F7E808346
:103D00001092E2010895A0E0B0E0E9E8FEE10C9431
:103D1000D836C8EDD0E088818F7E8883E7EDF0E06B
:103D200080818160808384E082BF81E08093E201B2
:103D300088818E7F888302EE10E0F8011082109255
:103D4000DA0081EEC82ED12CF601108288818F779F
:103D5000888388818068888388818F7D888319BC67
:103D60001092EF011092F0011092EE011092ED010D
:103D700090EEE92EF12CF70180818B7F8083888182
:103D80008160888342E060E080E00E94B21AF60120
:103D900080818E7F8083F801808181608083808133
:103DA00088608083F70180818E7F80838881806135
:103DB0008883CDB7DEB7E8E00C94F4361F920F92FB
:103DC0000FB60F9211242F933F934F935F936F93EE
:103DD0007F938F939F93AF93BF93EF93FF938091C4
:103DE000E10082FF09C08091E20082FF05C080915E
:103DF000E1008B7F8093E1008091DA0080FF2AC090
:103E00008091D80080FF26C08091DA008E7F809359
:103E1000DA008091D90080FF18C080E189BD82E17D
:103E200089BD09B400FEFDCF81E08093EF01809150
:103E3000E20181110FC00E94641E0E94831E8091C6
:103E4000E20084608093E20005C019BC1092EF018B
:103E50001092E2018091E10080FF17C08091E200A2
:103E600080FF13C08091E2008E7F8093E2008091FA
:103E7000E20080618093E2008091D80080628093AC
:103E8000D80019BC85E08093EF018091E10084FFA8
:103E900030C08091E20084FF2CC080E189BD82E1C6
:103EA00089BD09B400FEFDCF8091D8008F7D80933D
:103EB000D8008091E1008F7E8093E1008091E20044
:103EC0008F7E8093E2008091E20081608093E20027
:103ED0008091F001882311F084E007C08091E30015
:103EE00087FD02C081E001C083E08093EF018091F3
:103EF000EF018091E10083FF27C08091E20083FF02
:103F000023C08091E100877F8093E10082E080936D
:103F1000EF011092F0018091E1008E7F8093E1002B
:103F20008091E2008E7F8093E2008091E2008061C8
:103F30008093E20042E060E080E00E94B21A80914B
:103F4000F00088608093F000FF91EF91BF91AF91F6
:103F50009F918F917F916F915F914F913F912F91A1
:103F60000F900FBE0F901F9018952091E400309194
:103F7000E50095E64091EC00842F817040FF23C05E
:103F80008091E80080FD1DC08091EF01882399F0A9
:103F9000853099F08091EB0085FD11C04091E400DF
:103FA0005091E5002417350729F3915011F09A013B
:103FB000E1CF84E0089582E0089583E0089581E0F0
:103FC000089580E008954091E80042FFDDCF089514
:103FD0000F931F93CF93DF938B01EA019091EF0131
:103FE000943079F58F708093E9008FEF9091E8001D
:103FF000815095FD06C095ED9A95F1F7000081116D
:10400000F5CF8091E80085FF1CC00E94B51F882372
:1040100061F08091E8008E778093E80012C0F8018B
:1040200081918F018093F1002197209791F38091E6
:10403000E80085FDF4CF8091E8008E778093E8005A
:10404000E4CFDF91CF911F910F91089546E050E0AA
:10405000BC0184E00E94E81F089540E250E0BC01EA
:1040600084E00E94E81F0895CF93DF93EC0148E0BD
:1040700050E0BC0181E00E94E81F88E0FE01A5EE4F
:10408000B1E001900D928A95E1F7DF91CF9108950B
:1040900087E797E790930108809300089AE088E10A
:1040A0000FB6F894A895809360000FBE90936000BF
:1040B000FFCF78941F920F920FB60F9211248F9317
:1040C0009F93AF93BF938091DE019091DF01A09108
:1040D000E001B091E1010196A11DB11D8093DE01C7
:1040E0009093DF01A093E001B093E101BF91AF9104
:1040F0009F918F910F900FBE0F901F901895CF92A8
:10410000DF92EF92FF922FB7F894C090DE01D0902B
:10411000DF01E090E001F090E1012FBFA7019601DF
:10412000261B370B480B590BCA01B901FF90EF90C2
:10413000DF90CF9008959C014FB7F8948091DE01F5
:104140009091DF01A091E001B091E1014FBF821B8E
:10415000930B08952FB7F8946091DE017091DF0101
:104160008091E0019091E1012FBF08952FB7F8945D
:104170008091DE019091DF01A091E001B091E10119
:104180002FBF08951F920F920FB60F9211248F9395
:104190009F93AF93BF9380914803811113C0809187
:1041A000DE019091DF01A091E001B091E101419623
:1041B000A11DB11D8093DE019093DF01A093E0016A
:1041C000B093E101BF91AF919F918F910F900FBE7E
:1041D0000F901F90189590912401992321F09091B0
:1041E000460397FD03C0E9EFF1E01DC0E82FE69517
:1041F000E695E695EE31E0F4F0E0EF5FFD4F877075
:1042000021E030E0A90102C0440F551F8A95E2F772
:10421000CA0180959281892382830895319651E065
:10422000EF3FF50729F092818913F8CF1282F6CF7C
:104230000895909124019923D1F09091460397FF1E
:1042400016C0E82FE695E695E695EE3140F5F0E0EC
:10425000EF5FFD4F877021E030E0A90102C0440FFD
:10426000551F8A95E2F7CA019281892B16C0ABEFE0
:10427000B1E0EFEF90E02D91821789F0EF3F19F454
:10428000211101C0E92F9F5F9630A9F7EF3F39F068
:104290000E2E000CFF0BE750FE4F82830895089509
:1042A00080914203882359F0E0914403F091450343
:1042B000309729F00190F081E02D0995089580E074
:1042C000089587E290E00E943C370895CF93C82F6D
:1042D000811102C06FEF01C065E484E290E00E94AA
:1042E0003C37C11102C06FEF01C065E885E290E084
:1042F0000E943C37C11102C06FEF01C066E586E243
:1043000090E00E943C37CF91089584E290E00E94B3
:104310001E37853481F485E290E00E941E3785388F
:1043200051F486E290E00E941E3791E0863509F054
:1043300090E0892F01C080E08170089541155105FA
:1043400011F0FA0109950895CF93DF93EC014A85A6
:104350005B856E857F850E949E218B810E94E1197D
:104360008C810E94E8190E94F51986E0FE011192E5
:104370008A95E9F7DF91CF910895CF93DF93EC0110
:104380008D8181FD14C082608D8390913F038B816C
:10439000892B80933F038C810E94EF190E94F519AD
:1043A000488559856E857F85CE010E949E21109299
:1043B0004103109240038D8180FD03C0CE010E9415
:1043C000A421DF91CF910895A0E0B0E0EAEEF1E200
:1043D0000C94D6367C015B01C42FD22FFC01858161
:1043E0008823B1F040933E030E94B62090933D0392
:1043F00080933C0380E28C0F883008F052C0C77075
:1044000081E001C0880FCA95EAF70E94E72B49C0F6
:1044100080913E03481335C080913C0390913D0349
:104420000E949B206C01B701C5010E94CC31C816C7
:10443000D90638F510E21D0FCD17B9F080E28C0FC8
:10444000883040F4C77081E001C0880FCA95EAF750
:104450000E94E02B183010F581E09D2F977001C06D
:10446000880F9A95EAF70E94E72B802F0E947C2CF8
:104470001830B8F4D77081E001C0880FDA95EAF7F8
:104480000AC080E28C0F883060F4C77081E001C000
:10449000880FCA95EAF70E94E02B03C0802F0E9484
:1044A0007C2CCDB7DEB7EAE00C94F2360E94B62041
:1044B00020913803211104C020913903222321F0D7
:1044C000909335038093340320913A03211104C063
:1044D00020913B03222321F09093330380933203F6
:1044E000E0914403F0914503309749F082E08093D6
:1044F00036030680F781E02D86E393E00995089561
:104500008091310380FF08C060912C0170E07595A7
:1045100067957595679521C081FF06C060912C0154
:1045200070E07595679519C082FF04C060912C01F9
:1045300070E010C090913003992399F060912B01A5
:104540009617A0F780912C01899FC001112470E07B
:104550000E948C376038710540F46115710519F4BB
:1045600006C061E070E0862F08958FE7089581E02E
:10457000089580913103209114033091150380FF39
:104580000CC080912A01829FB001839F700D11247D
:1045900076956795769567952FC081FF0AC08091C3
:1045A0002A01829FB001839F700D11247695679533
:1045B00023C082FF08C080912A01829FB001839F9F
:1045C000700D112419C040910B03411102C0B901B3
:1045D00013C060912901461770F780912A01849FCA
:1045E000A0011124429FC001439F900D529F900D46
:1045F000112470E00E9478376038710528F4611545
:10460000710521F0862F08958FE7089581E00895C0
:10461000282F35EB2303C001112497FF03C08058D6
:10462000910902C080589F4F892F0895CF92DF9241
:10463000EF92FF92CF93DF93EC01C0900003D090F4
:104640000103E0900203F0900303C701B6010E944A
:104650007F20643F71408105910568F4C092FC029F
:10466000D092FD02E092FE02F092FF0284EF91E010
:10467000A0E0B0E00EC00E94AA206093FC027093FC
:10468000FD028093FE029093FF0282E390E0A0E09F
:10469000B0E08093F8029093F902A093FA02B093ED
:1046A000FB02D0930803C0930703DF91CF91FF90E3
:1046B000EF90DF90CF900895FF920F931F93CF93C9
:1046C000DF930091090310910A030115110509F404
:1046D0005AC010920803109207031092040310921C
:1046E0000503D80116962D913C911797A9015A956B
:1046F00041155F4108F4307EC22FD1E0211101C085
:10470000D0E0F82ED8011996ED91FC911A973097C8
:1047100039F01B966D917C911C9780E00995D82308
:10472000DD2369F08CEF8C0F813A20F48C2F0E94EE
:10473000EB2005C00E94F5198C2F0E94EE2BE09112
:104740000903F0910A0340815181FF2071F08085B7
:1047500084FD0BC080910603882339F091E09A0113
:10476000215031092F333E4708F090E090FF03C0FD
:10477000CA010E9416230E94F51910920A03109292
:10478000090310920603C801CDB7DEB7E5E00C942B
:10479000F736FC0184818623C1F492819923B9F014
:1047A0008085692383FF04C081E0611111C00DC0C1
:1047B000892F8F7092959F70982B862F8F7062959E
:1047C0006F70682B81E0961719F080E0089581E002
:1047D0000895CF93DF93C4E9D3E060E0CE010E9457
:1047E0003C372196C11584E0D807B9F7DF91CF9106
:1047F00008958C3080F49B01982F8AE0989FB00137
:10480000112464587D4F4AE050E0C9010E940E37E0
:1048100080E090E008958FEF9FEF08951F93CF936E
:10482000DF93962F8730E8F46830D8F44530C8F429
:10483000632F122FC42FD0E0CC0FDD1F2AE0929FF0
:10484000C00DD11D112490E5899FC00DD11D1124EB
:10485000CE0188960E943C37612FCE0189960E9436
:104860003C37DF91CF911F9108950F931F93CF9302
:10487000DF93873008F56830F8F44530E8F4C42F4A
:10488000D0E0CC0FDD1F2AE0629FC00DD11D1124A6
:1048900030E5839FC00DD11D1124CE0188960E9462
:1048A0001E3790E0182F0027CE0189960E941E37F0
:1048B0009801282BC90102C080E090E0DF91CF91E0
:1048C0001F910F910895BC014091F2028091F30273
:1048D000942F981729F1292F30E0F901EE0FFF1FCF
:1048E000E651FD4F0190F081E02DE617F70799F4AE
:1048F00087E0869FF001879FF00D1124E75BFD4F55
:1049000081E0848394130CC02F5F3F4F23703327C3
:104910002093F20208952F5F3F4F922F9370D9CFCB
:104920000895EF92FF920F931F93CF93DF9380919F
:1049300081028823D9F1C09148028DE0F82E809140
:104940008102C81778F5EE24E394EC0EE092480259
:10495000D0E0FC9EF001FD9EF00D1124EE57FD4FBE
:1049600084818823E9F087819085892B21F48185D2
:104970009285019659F4008111812281338144810D
:1049800055816681778180850E94622BFC9EF001B3
:10499000FD9EF00D1124EE57FD4F148210923F033F
:1049A000CE2DCDCF1092810210924802CDB7DEB746
:1049B000E6E00C94F6361092470210924602E9E4C3
:1049C000F2E08581811102C014821682379682E05E
:1049D000E138F807B1F708951092F5021092F40249
:1049E000109228018091F3028093F2020E94DB244E
:1049F0000E9491240895A0E0B0E0E1E0F5E20C947B
:104A0000CF36C091F20297E0992E01E010E02DE040
:104A1000322E34E0432E552453948091F302C8176C
:104A200009F479C0D0E0FE01EE0FFF1FE651FD4F03
:104A300080819181989ED001999EB00D1124A75B31
:104A4000BD4F14962C911497211162C07090810271
:104A5000E2E8F2E020E030E0812C5D01271508F06B
:104A600055C0E384F484D501CD90DC906FEF7FEFE7
:104A7000612C462D50E0DA01AA0FBB1FAC0DBD1D05
:104A80000D90BC91A02D109731F0EA16FB0609F4A9
:104A9000BA016394EECF6F3FBFEF7B0799F1D80166
:104AA00002C0AA0FBB1F6A95E2F78A2AB801062C3A
:104AB00002C0660F771F0A94E2F7AB01415051091B
:104AC000682D70E046175707E1F4329EF001339EDF
:104AD000F00D1124EE57FD4F989ED001999EB00D18
:104AE0001124A75BBD4F12962D913C9113973087EF
:104AF00027834482108211829287818715965C9267
:104B000005C014822F5F3F4F3D96A8CF0E946324BB
:104B10002196C37082CF0E9491240E94DB24CDB7DE
:104B2000DEB7E1E10C94EB3680912701877F80931B
:104B3000270182E00E94E1198091270184FF06C0CD
:104B40008F7E8093270182E00E94EF1980912701D8
:104B500085FF06C08F7D8093270180E20E94EF19B8
:104B60000E94F5190895662329F020913F032260E1
:104B700020933F039C0130522115304308F49927BC
:104B80000E945A2F0895009741F0EFE9FFE0319716
:104B9000F1F700C000000197F6CF0895A0E0B0E063
:104BA000E4EDF5E20C94D6365C017B01C42E89015C
:104BB0008091270182FF88C0C0914402D0914502B4
:104BC000CA15DB0521F0A114B10409F07DC0809164
:104BD00027018B7F8093270181FD11C080914202C4
:104BE00090914302A701481B590B81E020912501B8
:104BF000309126014217530718F480E001C081E08C
:104C00008170D82E80912701D0FA81F980932701F5
:104C1000FE01FF2784E0F695E7958A95E1F79E016E
:104C20002F703327EE0FFF1FEE5DFD4F81E090E008
:104C300002C0880F991F2A95E2F7DD2029F0208114
:104C40003181822B932B06C08095909520813181F4
:104C500082239323918380838091210281FF08C066
:104C60008091270180618093270182E00E94E819EA
:104C70008091210285FF08C0809127018062809386
:104C8000270180E20E94E819A8016D2DCE010E9443
:104C9000B325CC2031F08091270385FF02C086FF29
:104CA0002BC080912A0390912B030E94C3258091F1
:104CB0004402909145029C0130522115304308F482
:104CC00099270E94402F12C0C50190528115904330
:104CD00018F4C501992701C0C5010E94402F809199
:104CE000440290914502A816B90611F40E94942539
:104CF000F0924302E0924202CDB7DEB7EAE00C94B4
:104D0000F236ECE0F3E0128E138E8FEA90E091839E
:104D1000808325E0248F88E893E1938382838AE06F
:104D200090E09583848344E150E05783468348E0D4
:104D300050E051874087938782876EE170E07587E6
:104D400064879787868780E590E0918B808B538B73
:104D5000428B48E250E0558B448B42E350E0578B46
:104D6000468B46E950E0518F408F158E178E168E78
:104D700091A380A322A30E94DC300E94392B1092C1
:104D8000470310924603E7E4F3E080818460808368
:104D9000609146037091470384E090E00E945A3787
:104DA0000E94B5300895AEE1B0E0E9EDF6E20C9472
:104DB000D236A090F602B090F70281E090E0909396
:104DC000F7028093F602C12CD12C712CE12CF12C2E
:104DD000612C00E010E047018C0C9D1C402F7110ED
:104DE0000BC0F801EE0FFF1FE80DF91DEB59FB4F4B
:104DF000859194919C0102C021E030E0662D872DC1
:104E00000E940E240F5F1F4F0530110539F7639480
:104E10008AE0E80EF11CE8E06E12DBCF7394F0E557
:104E2000CF0ED11C87E07812D1CF0E9481261A8242
:104E300019821C821B821E821D8218861F8286E9AF
:104E400090E09A8789870CE712E04AE050E0B801C9
:104E5000CE0101960E946037065F1F4F043FE2E0DB
:104E60001E0799F77E01FBE0EF0EF11C8AE0F701C7
:104E700011928A95E9F74AE050E0B801C7010E9413
:104E80006037065F1F4F0434F3E01F07A1F77E0170
:104E900085E1E80EF11C8AE0F70111928A95E9F7A5
:104EA0008FEF9FEF9A8F898F87E08E8F4AE050E0D7
:104EB000B801C7010E946037065F1F4F0439F3E055
:104EC0001F07A1F7B092F702A092F6026E96EEE0ED
:104ED0000C94EE3680E00E94662160E070E0CB0129
:104EE0000E9461210E94D3260E94E92381E00E9452
:104EF000662108952091AA039091610359E0291732
:104F0000A9F030E0529FF001539FF00D1124EE59AB
:104F1000FC4F7181761306C07081781303C07581D0
:104F2000741306C02F5F3F4F2770E9CF80E00895CC
:104F300081E008958091AA0390916103891719F087
:104F40008F5F8770FBCF0895A0E0B0E0EAEAF7E258
:104F50000C94D93680915E0382958F7009F052C00F
:104F600080915D03882309F44DC0C091AA0389E0B4
:104F7000D82E80916103C81709F444C0D0E0DC9EAC
:104F80008001DD9E100D1124F801EE59FC4F848143
:104F90008823A9F1918180915903981330C09081A1
:104FA0008091580398132BC08581811128C0E2801D
:104FB000F38080915A0390915B03E81AF90A60E04C
:104FC00088E593E00E94AF2C68E573E00E94CC3145
:104FD000E816F906A0F480915E038F7080618093DB
:104FE0005E03F801E859FC4F80818F7080618083F7
:104FF00088E593E00E9450030E949A2703C02196FF
:10500000C770B7CFCDB7DEB7E7E00C94F536809127
:105010000E0390910F03892B89F00E94B6202091F6
:10502000B9013091BA01AC01421B530B81E02091D0
:105030000E0330910F034217530708F480E081708C
:1050400008959091AB03292F282321F08095982370
:105050009093AB030895CF92DF92FF920F931F932B
:10506000CF93DF936C0100916A0180916901082B55
:10507000C6E0D0E010E0C8010C2E02C095958795DF
:105080000A94E2F780FD04C02197A8F7F12C09C02B
:10509000FC2EB6018C2F0E9438180E9455180197DB
:1050A00099F38F2DDF91CF911F910F91FF90DF909A
:1050B000CF900895CF93DF93EC010E942B28BE017F
:1050C0000E9438180E945518DF91CF910895292F1A
:1050D000983078F5853068F590E035E0239F800DB5
:1050E000911D1124682F677023E0969587952A9566
:1050F000E1F7FC01EE0FFF1FE80FF91FE75BFC4F24
:1051000040E050E080E0219130E0062E02C036956C
:1051100027950A94E2F721703327042E01C0220F4D
:105120000A94EAF7822B4F5F5F4F4330510559F7DE
:10513000089580E00895292F983088F5853078F516
:1051400090E035E0239F800D911D1124282F2770BA
:1051500051E001C0550F2A95EAF723E0969587950F
:105160002A95E1F7FC01EE0FFF1FE80FF91FE75B3F
:10517000FC4F20E030E070E04081CB01022E02C005
:10518000969587950A94E2F7817081958427852307
:10519000842781932F5F3F4F2330310569F70895AE
:1051A00080936A01089590916A0121E030E0F9014D
:1051B00001C0EE0F8A95EAF7D90102C0AA0FBB1F02
:1051C0006A95E2F7BD016E2B01C0220F4A95EAF7FE
:1051D000892F8623681303C0892F822B03C0209553
:1051E000822F89230E94D028089521E030E001C059
:1051F000220F8A95EAF7209580916A0182230E9406
:10520000D028089521E030E001C0220F8A95EAF706
:1052100080916A01822B0E94D028089580936901B1
:10522000089592959F70963079F010F4925001C0D5
:105230009A50923068F4803F69F018F4883E40F448
:1052400009C0843F29F406C0883E20F0813F11F058
:1052500080E0089581E00895FC012481222371F00B
:1052600087819085009719F00E94551804C08081AD
:1052700091810E945A280E941129089580E0089582
:10528000A8E1B0E0E6E4F9E20C94D1368C0186E0C6
:10529000F801DE01539601900D928A95E1F7D8014D
:1052A00014967C9014971596EC9088E5A82E83E0D0
:1052B000B82E80915C03811122C0772009F45BC075
:1052C000EE2009F455C0C8010E942C29F82E88232D
:1052D00009F44EC089E0F801A8E5B3E001900D9211
:1052E0008A95E1F780915C03813031F48091580315
:1052F000909159030E945A280E94A427B5C1F80131
:1053000050806180C280D38060E088E593E00E9495
:10531000AF2CF0905D0380915A0390915B0346019E
:10532000881A990A60E088E593E0FF2009F431C10A
:105330000E94AF2C68E573E00E94CC318816990674
:1053400008F0CCC07720B9F080915E03382F307F11
:1053500020915903D80111969C911197332371F034
:10536000291709F47AC0C8010E942C29811189C02B
:10537000C8010E945003FF24F39476C129131FC073
:10538000209158039C9129131AC040915F035091BA
:10539000600317962D913C9118974217530779F4A3
:1053A000E1100DC08F70806180935E0388E593E00B
:1053B0000E94500380915E03F80186839DC0E11036
:1053C0003AC040E0662D852D0E947A27E82E88237A
:1053D00029F08091290380FF8FC036C05B8A6C8AD8
:1053E0008B899C890E945A28292F22952F7024305E
:1053F00020F49F70223028F009C02A50223080F01B
:1054000014C0992349F0811107C013C0992321F0DA
:10541000F8019681907F69F0805E883030F409C091
:10542000803F38F0815F833020F0C8010E94500334
:10543000EF2CFE2C19C180915E03816080935E0386
:105440008091290381FD58C088E593E00E945003B4
:10545000E8E5F3E089E0DF014CC020915803F80152
:105460009081291380CF40915F0350916003278181
:1054700030854217530709F076CFE11074CF868349
:10548000D4C0EE2009F474CF20915E03822F829560
:105490008F7090E00297BCF080915803909159036F
:1054A0009B878A87DD86CC8680915C038E871F86EA
:1054B000288B80915F03909160039A8B898BCE013A
:1054C0000A960E94500389E0F801A8E5B3E0019034
:1054D0000D928A95E1F70E94A4274DCF80915E033B
:1054E000982F907F59F488E593E00E94500389E05B
:1054F000D5011D928A95E9F7F12CB6C0772009F401
:105500003ACF20915903F801918129131AC02091B3
:1055100058039081291315C040915F035091600397
:10552000278130854217530761F4E1100AC0868352
:10553000C8010E94500389E0D5011D928A95E9F7C0
:1055400093C0C8010E942C29882309F411CFEE20B2
:1055500009F40ECF20915E03822F82958F7090E028
:1055600002970CF4B0CF80915803909159039A831D
:105570008983DC82CB8280915C038D831E822F83A2
:1055800080915F039091600399878887CE0101968F
:1055900098CF0E94AF2C68E573E00E94CC3188164A
:1055A000990608F05CC0772009F4E5CEFE2CEE20C9
:1055B00009F4DECE90915903F8018181981341C01E
:1055C00090915803808198133CC020915F033091E3
:1055D0006003878190852817390799F580915A03D0
:1055E00090915B03C81AD90AF6E9CF16D10400F5E9
:1055F00080915E0380FD1CC082958F70482F50E023
:1056000041155105A9F020915E03D80116962C93FF
:1056100016974F30510549F08F5F982F9295907FE4
:10562000822F8F70892B16968C93C8010E9450038D
:1056300089E0F801A8E5B3E001900D928A95E1F7C1
:1056400013C0C8010E942C2981113DCF80915E03B7
:10565000816080935E03C8010E94500305C089E009
:10566000F50111928A95E9F78F2D6896EFE00C9479
:10567000ED361092210280912401882341F080911F
:10568000460387FF04C08EE1E3E0F2E003C086E05A
:10569000EBEFF1E0DF011D928A95E9F710923F03ED
:1056A0000E94F519E6E3F3E086E0DF011D928A959A
:1056B000E9F710920B0310923003109231030E940D
:1056C00056220895A2E1B0E0E8E6FBE20C94DC3655
:1056D0000A871B872C873D874E875F87688B798B6E
:1056E0008A8BCE010A960E94402981113BC089E035
:1056F000FE013A96DE01119601900D928A95E1F72E
:105700006E85662379F12091610330E0C90101962D
:10571000877099274091AA0350E084179507A1F05C
:105720006D8399E0929FD001939FB00D1124AE59E3
:10573000BC4FFE01319601900D929A95E1F780934E
:1057400061030E949A270EC00E94392B10926103B8
:105750001092AA03E8E5F3E089E0DF011D928A9543
:10576000E9F719C019E08091AA03909161038917A4
:1057700091F0189FC00111248E599C4F0E9440291E
:10578000882349F08091AA0390E0019687709927B9
:105790008093AA03E8CF6296E4E00C94F83688235D
:1057A00021F00E94E1190E94F5190895882339F02B
:1057B00090913F03892B80933F030E94F519089530
:1057C000882321F00E94E8190E94F5190895882382
:1057D00021F00E94EF190E94F51908958823F1F035
:1057E0009CEF980F913A18F40E94EB200DC090E2C4
:1057F000980F983060F4877091E001C0990F8A95F6
:10580000EAF7892F0E94E8190E94F519089593E399
:10581000980F933118F460E00E9428340895CF93D4
:10582000882309F44FC0C82F8CEF8C0F813A98F56C
:10583000809124018823E1F08091460387FF18C0FE
:10584000EC2FE695E695E695F0E0EF5FFD4F82815F
:10585000282F30E04C2F477081E090E002C0880F85
:10586000991F4A95E2F782239323892B59F40FC09D
:10587000EBEFF1E08191C81729F082E0E130F80701
:10588000C9F705C08C2F0E94EB200E94F5198C2FC0
:105890000E9419210CC080E28C0F883058F4C77028
:1058A00081E001C0880FCA95EAF70E94EF190E94B3
:1058B000F51908C083E38C0F833120F461E08C2F4D
:1058C0000E942834CF9108951F93CF93DF93182F10
:1058D000EB010E940F2C209741F08FE99FE0019788
:1058E000F1F700C000002197F6CF812F0E94EE2B28
:1058F000DF91CF911F910895893329F460912C0392
:1059000070912D0304C060912A0370912B030E94B3
:10591000642C0895A6E0B0E0E0E9FCE20C94DD36EA
:1059200049835A8349815A81992361F0222351F096
:10593000CA010E942B28182F682F89819A810E9402
:105940009B2804C0CA010E946728182F69817A81A8
:10595000812F0E9438182696E3E00C94F936FC015A
:1059600087819085009749F4262F4081518162817B
:105970007381848195810E948A2C0895ADE1B0E005
:10598000E4ECFCE20C94CE364B8B5C8B6D8B7E8B07
:105990008F8B988F882349F08091590190915A01FB
:1059A000019690935A0180935901888D811110922C
:1059B0003F038E01065F1F4F89E0F80111928A951F
:1059C000E9F786E0FE017396D80101900D928A9561
:1059D000E1F78091470382FF28C080910E039091E8
:1059E0000F03892B11F10E94B62020918E01309176
:1059F0008F01821B930B20910E0330910F038217AE
:105A0000930740F08091900182FB992790F981E003
:105A1000892701C080E080FF03C082E00E944E1A07
:105A20000E94072881110E9471198E8581110CC076
:105A30000A851B852C853D854E855F85688979891A
:105A40008A890E94622BD5C161E0C8010E94AF2CF7
:105A50005C018035FCE79F0739F48F858823A9F026
:105A600081E080932801C2C181359C4731F48F8544
:105A7000882359F00E94EC24B9C182E5A8168CE76E
:105A8000B80619F48F85811113C0E9E4EE2EE2E027
:105A9000FE2E512C812C912C66246394712C44246D
:105AA0004394FE013196FA8FE98FA7E03A2E4EC05B
:105AB000809128018823A1F2DDCFA616B70609F050
:105AC000C6013F5F6C01832F90E0FC01EE0FFF1FCA
:105AD000E40FF51F608171816115710571F7FFEFAA
